{"abi":[{"type":"constructor","inputs":[{"name":"_beeper","type":"address","internalType":"address"},{"name":"_basePair","type":"address","internalType":"address"}],"stateMutability":"nonpayable"},{"type":"function","name":"basePair","inputs":[],"outputs":[{"name":"","type":"address","internalType":"address"}],"stateMutability":"view"},{"type":"function","name":"beeper","inputs":[],"outputs":[{"name":"","type":"address","internalType":"address"}],"stateMutability":"view"},{"type":"function","name":"generateSalt","inputs":[{"name":"deployer","type":"address","internalType":"address"},{"name":"fid","type":"uint256","internalType":"uint256"},{"name":"name","type":"string","internalType":"string"},{"name":"symbol","type":"string","internalType":"string"},{"name":"image","type":"string","internalType":"string"},{"name":"castHash","type":"string","internalType":"string"},{"name":"supply","type":"uint256","internalType":"uint256"},{"name":"paired","type":"address","internalType":"address"}],"outputs":[{"name":"salt","type":"bytes32","internalType":"bytes32"},{"name":"token","type":"address","internalType":"address"}],"stateMutability":"view"},{"type":"function","name":"predictToken","inputs":[{"name":"deployer","type":"address","internalType":"address"},{"name":"fid","type":"uint256","internalType":"uint256"},{"name":"name","type":"string","internalType":"string"},{"name":"symbol","type":"string","internalType":"string"},{"name":"image","type":"string","internalType":"string"},{"name":"castHash","type":"string","internalType":"string"},{"name":"supply","type":"uint256","internalType":"uint256"},{"name":"salt","type":"bytes32","internalType":"bytes32"}],"outputs":[{"name":"","type":"address","internalType":"address"}],"stateMutability":"view"}],"bytecode":{"object":"0x608034608457601f61358638819003918201601f19168301916001600160401b038311848410176088578084926040948552833981010312608457604b6020604583609c565b9201609c565b5f8054600180546001600160a01b039586166001600160a01b03199182161790915516919092161790556040516134d690816100b08239f35b5f80fd5b634e487b7160e01b5f52604160045260245ffd5b51906001600160a01b038216820360845756fe60e0806040526004361015610012575f80fd5b5f3560e01c9081635930919b146102c85750806387eeffa4146101fd578063ac6db1a1146101d55763fb16adc414610048575f80fd5b346101d1576101003660031901126101d1576100626102ea565b60443567ffffffffffffffff81116101d157610082903690600401610300565b919060643567ffffffffffffffff81116101d1576100a4903690600401610300565b9060c0529260843567ffffffffffffffff81116101d1576100c9903690600401610300565b60a49391933567ffffffffffffffff81116101d1576100ec903690600401610300565b60e43560a08190529092906001600160a01b03811690036101d1575f6080819052546001600160a01b031697958761013e8787878787878e5b608051986080519760c4359760c0519260243590610384565b6001600160a01b0381168b811090816101c7575b816101b2575b506101965750506080515f1914610182576080805160010190528761013e8787878787878e610125565b634e487b7160e01b5f52601160045260245ffd5b604080519283526001600160a01b039190911660208301529150f35b60a0516001600160a01b03161190505f610158565b823b159150610152565b5f80fd5b346101d1575f3660031901126101d1576001546040516001600160a01b039091168152602090f35b346101d1576101003660031901126101d1576102176102ea565b60443567ffffffffffffffff81116101d157610237903690600401610300565b9060643567ffffffffffffffff81116101d157610258903690600401610300565b939060843567ffffffffffffffff81116101d15761027a903690600401610300565b60a435959167ffffffffffffffff87116101d1576020976102a26102b6983690600401610300565b95909460e4359860c4359860243590610384565b6040516001600160a01b039091168152f35b346101d1575f3660031901126101d1575f546001600160a01b03168152602090f35b600435906001600160a01b03821682036101d157565b9181601f840112156101d15782359167ffffffffffffffff83116101d157602083818601950101116101d157565b90601f8019910116810190811067ffffffffffffffff82111761035057604052565b634e487b7160e01b5f52604160045260245ffd5b908060209392818452848401375f828201840152601f01601f1916010190565b9a969a99909998929591949793986040516020810191600160a01b6001900316988983526040820152604081526103bc60608261032e565b5190209a6001549a612fab986040519b8c60208c016103da9161032e565b8a8d5260208d019a6104f68c396040519b8c9960208b019b60e08d526101008c019061040592610364565b90601f198b83030160408c015261041b92610364565b936060890152608088015260a0870152601f198683030160c087015261044092610364565b90601f198483030160e085015261045692610364565b03601f1981018452610468908461032e565b6040519283926020840195518091875e83019060208201905f8252519283915e016020015f815203601f19810182526104a1908261032e565b51902060405192602084019260ff60f81b84526bffffffffffffffffffffffff199060601b16602185015260358401526055830152605582526104e560758361032e565b905190206001600160a01b03169056fe6101606040523461011f57612fab803803809161001b82610137565b6101603960e08161016001911261011f57610160516001600160401b03811161011f578161004c9161016001610197565b610180516001600160401b03811161011f578261006c9161016001610197565b6101a05161007b6101c06101ec565b6101e051610200519092906001600160401b03811161011f57866100a29161016001610197565b610220519094906001600160401b03811161011f576100ce976100c89161016001610197565b9561056e565b6040516120039081610f688239608051816113fa015260a051816114b7015260c051816113c4015260e051816114490152610100518161146f015261012051816106db015261014051816107040152f35b5f80fd5b634e487b7160e01b5f52604160045260245ffd5b610160601f91909101601f19168101906001600160401b0382119082101761015e57604052565b610123565b601f909101601f19168101906001600160401b0382119082101761015e57604052565b60405190610195604083610163565b565b81601f8201121561011f578051906001600160401b03821161015e57604051926101cb601f8401601f191660200185610163565b8284526020838301011161011f57815f9260208093018386015e8301015290565b51906001600160a01b038216820361011f57565b90600182811c9216801561022e575b602083101461021a57565b634e487b7160e01b5f52602260045260245ffd5b91607f169161020f565b601f8111610244575050565b60035f5260205f20906020601f840160051c8301931061027e575b601f0160051c01905b818110610273575050565b5f8155600101610268565b909150819061025f565b601f821161029557505050565b5f5260205f20906020601f840160051c830193106102cd575b601f0160051c01905b8181106102c2575050565b5f81556001016102b7565b90915081906102ae565b80519091906001600160401b03811161015e57610300816102f9600454610200565b6004610288565b602092601f821160011461034057610330929382915f92610335575b50508160011b915f199060031b1c19161790565b600455565b015190505f8061031c565b60045f52601f198216937f8a35acfbc15ff81a39ae7d344fd709f28e8600b4aa8c65c6b64bfe7fe36bd19b915f5b8681106103a4575083600195961061038c575b505050811b01600455565b01515f1960f88460031b161c191690555f8080610381565b9192602060018192868501518155019401920161036e565b80519091906001600160401b03811161015e576103e5816103de600f54610200565b600f610288565b602092601f821160011461041957610414929382915f926103355750508160011b915f199060031b1c19161790565b600f55565b600f5f52601f198216937f8d1108e10bcb7c27dddfc02ed9d693a074039d026cf4ea4240b40f7d581ac802915f5b86811061047d5750836001959610610465575b505050811b01600f55565b01515f1960f88460031b161c191690555f808061045a565b91926020600181928685015181550194019201610447565b80519091906001600160401b03811161015e576104be816104b7601054610200565b6010610288565b602092601f82116001146104f2576104ed929382915f926103355750508160011b915f199060031b1c19161790565b601055565b60105f52601f198216937f1b6847dc741a1b0cd08d278845f9d819d87b734759afb55fe2de5cb82a9ae672915f5b868110610556575083600195961061053e575b505050811b01601055565b01515f1960f88460031b161c191690555f8080610533565b91926020600181928685015181550194019201610520565b95949392919560405190610583604083610163565b60018252603160f81b6020830190815281519093906001600160401b03811161015e576105ba816105b5600354610200565b610238565b6020601f821160011461068a579461066f946101959b9a989461060a61066a95610602866106749c976106799f9c5f9161067f575b508160011b915f199060031b1c19161790565b6003556102d7565b610613816107d2565b61012052610620826108c7565b610140526020815191012060e052519020610100524660a0526106416109b9565b6080523060c052600d80546001600160a01b0319166001600160a01b0392909216919091179055565b600e55565b6103bc565b610495565b33610726565b90508501515f6105ef565b60035f52601f198216907fc2575a0e9e593c00f959f8c92f12db2869c3395a3b0502d05e2516446f71f85b915f5b81811061070e57509461060a61066a9560016101959f9e9c98966106799e9b9661066f9b96826106749f9a106106f6575b5050811b016003556102d7565b8601515f1960f88460031b161c191690555f806106e9565b9192602060018192868a0151815501940192016106b8565b91906001600160a01b03831680156107bf576002548281018091116107ba576002555f81815260208181526040808320805486019055518481527fddf252ad1be2c89b69c2b068fc378daa952ba7f163c4a11628f55a4df523b3ef9190a3600254926001600160d01b038085116107a35750610195929350610a96565b630e58ae9360e11b5f52600485905260245260445ffd5b610a82565b63ec442f0560e01b5f525f60045260245ffd5b908151602081105f146107ed5750906107ea90610a17565b90565b6001600160401b03811161015e576108118161080a600554610200565b6005610288565b602092601f821160011461084857610840929382915f926103355750508160011b915f199060031b1c19161790565b60055560ff90565b60055f52601f198216937f036b6384b5eca791c62761152d0c79bb0604c104a5fb6f4eb0703f3154bb3db0915f5b8681106108af5750836001959610610897575b505050811b0160055560ff90565b01515f1960f88460031b161c191690555f8080610889565b91926020600181928685015181550194019201610876565b908151602081105f146108df5750906107ea90610a17565b6001600160401b03811161015e57610903816108fc600654610200565b6006610288565b602092601f821160011461093a57610932929382915f926103355750508160011b915f199060031b1c19161790565b60065560ff90565b60065f52601f198216937ff652222313e28459528d920b65115c16c04f3efc82aaedc97be59f3f377c0d3f915f5b8681106109a15750836001959610610989575b505050811b0160065560ff90565b01515f1960f88460031b161c191690555f808061097b565b91926020600181928685015181550194019201610968565b60e051610100516040519060208201927f8b73c3c69bb8fe3d512ecc4cf759cc79239f7b179b0ffacaa9a75d522b39400f8452604083015260608201524660808201523060a082015260a08152610a1160c082610163565b51902090565b601f815111610a42576020815191015160208210610a33571790565b5f198260200360031b1b161790565b604460209160405192839163305a27a960e01b83528160048401528051918291826024860152018484015e5f828201840152601f01601f19168101030190fd5b634e487b7160e01b5f52601160045260245ffd5b90610aa081610b95565b9165ffffffffffff4311610b7d57600a5480610b475750610ada610aca610195945f5b6001610f0b565b65ffffffffffff4316600a610e35565b50506001600160a01b03168015610b2f575b60086020527f5eff886ea0ce6ca488a3d6e336d6c0f75f46d19b42c06ce5ee98e42c96d256c7545f9182526040909120546001600160a01b039081169116610cc4565b610b40610b3b83610b95565b610bc6565b5050610aec565b92835f198101116107ba57600a5f525f516020612f6b5f395f51905f529093015461019593610ada91610aca919060301c610ac3565b6306dfcc6560e41b5f5260306004524360245260445ffd5b6001600160d01b038111610baf576001600160d01b031690565b6306dfcc6560e41b5f5260d060045260245260445ffd5b65ffffffffffff4311610b7d57600a5480610bf05750610aca610bec915f5b6002610f0b565b9091565b805f198101116107ba57600a5f525f516020612f6b5f395f51905f520154610bec91610aca9160301c610be5565b65ffffffffffff4311610b7d57805480610c525750610c42610bec925f6002610f0b565b9065ffffffffffff431690610e35565b805f198101116107ba575f82815260209020015f190154610bec92610c429160301c610be5565b65ffffffffffff4311610b7d57805480610c9d5750610c42610bec925f6001610f0b565b805f198101116107ba575f82815260209020015f190154610bec92610c429160301c610ac3565b6001600160a01b03808316939291908116908185141580610db7575b610cec575b5050505050565b81610d5d575b505082610d01575b8080610ce5565b6001600160a01b03165f9081526009602052604090205f516020612f8b5f395f51905f5291610d3a91610d349091610b95565b90610c79565b604080516001600160d01b039384168152919092166020820152a25f8080610cfa565b6001600160a01b03165f9081526009602052604090205f516020612f8b5f395f51905f5290610d9590610d8f86610b95565b90610c1e565b604080516001600160d01b039384168152919092166020820152a25f80610cf2565b50831515610ce0565b5f198101919082116107ba57565b9081546801000000000000000081101561015e5760018101808455811015610e21575f9283526020928390208251929093015160301b65ffffffffffff191665ffffffffffff9290921691909117910155565b634e487b7160e01b5f52603260045260245ffd5b80549293928015610ee157610e4c610e5791610dc0565b825f5260205f200190565b8054603081901c9365ffffffffffff91821692918116808411610ed257879303610e9e5750610e9a92509065ffffffffffff82549181199060301b169116179055565b9190565b915050610e9a91610ebe610eb0610186565b65ffffffffffff9093168352565b6001600160d01b0386166020830152610dce565b632520601d60e01b5f5260045ffd5b5090610f0691610ef2610eb0610186565b6001600160d01b0385166020830152610dce565b5f9190565b91909180600114610f4d57600214610f3157634e487b7160e01b5f52605160045260245ffd5b6001600160d01b03908116918116919091039081116107ba5790565b506001600160d01b03918216908216019081116107ba579056fe60806040526004361015610011575f80fd5b5f3560e01c806306fdde03146101f4578063095ea7b3146101ef57806318160ddd146101ea57806323b872dd146101e5578063313ce567146101e05780633257b4f3146101db5780633644e515146101d65780633a46b1a8146101d157806342966c68146101cc5780634bf5d7e9146101c7578063587cde1e146101c25780635c19a95c146101bd5780636fcfff45146101b857806370a08231146101b357806379cc6790146101ae5780637ecebe00146101a957806384b0196e146101a45780638e539e8c1461019f57806391ddadf41461019a57806395d89b41146101955780639ab24eb014610190578063a4dac2811461018b578063a9059cbb14610186578063c3cda52014610181578063d505accf1461017c578063d5f3948814610177578063dd62ed3e14610172578063eb3d68e71461016d578063f1127ed8146101685763f3ccaac014610163575f80fd5b610f15565b610e63565b610df1565b610d16565b610cee565b610bca565b610abb565b610a75565b6109d0565b610989565b6108e4565b6108b9565b6107c0565b6106c3565b61068b565b61065b565b610623565b6105c1565b61059f565b61055f565b6104cf565b6104b0565b61041b565b6103f9565b6103dc565b6103c1565b610389565b61036c565b61033b565b610231565b805180835260209291819084018484015e5f828201840152601f01601f1916010190565b90602061022e9281815201906101f9565b90565b3461030b575f36600319011261030b576040515f60035461025181610fce565b80845290600181169081156102e75750600114610289575b6102858361027981850382610da2565b6040519182918261021d565b0390f35b60035f9081527fc2575a0e9e593c00f959f8c92f12db2869c3395a3b0502d05e2516446f71f85b939250905b8082106102cd57509091508101602001610279610269565b9192600181602092548385880101520191019092916102b5565b60ff191660208086019190915291151560051b840190910191506102799050610269565b5f80fd5b600435906001600160a01b038216820361030b57565b602435906001600160a01b038216820361030b57565b3461030b57604036600319011261030b5761036161035761030f565b60243590336117c1565b602060405160018152f35b3461030b575f36600319011261030b576020600254604051908152f35b3461030b57606036600319011261030b576103616103a561030f565b6103ad610325565b604435916103bc8333836111f4565b6112c2565b3461030b575f36600319011261030b57602060405160128152f35b3461030b575f36600319011261030b576020600e54604051908152f35b3461030b575f36600319011261030b5760206104136113c1565b604051908152f35b3461030b57604036600319011261030b5761043461030f565b60243565ffffffffffff610447436114dd565b16918282101561049a576001600160a01b03165f90815260096020526040902061028592506001600160d01b03916104899190610483906114dd565b90611528565b604051911681529081906020820190565b50637669fc0f60e11b5f5260045260245260445ffd5b3461030b57602036600319011261030b576104cd600435336115b9565b005b3461030b575f36600319011261030b576104e8436114dd565b65ffffffffffff806104f9436114dd565b1691160361055057610285604051610512604082610da2565b601d81527f6d6f64653d626c6f636b6e756d6265722666726f6d3d64656661756c7400000060208201526040519182916020835260208301906101f9565b6301bfc1c560e61b5f5260045ffd5b3461030b57602036600319011261030b576001600160a01b0361058061030f565b165f526008602052602060018060a01b0360405f205416604051908152f35b3461030b57602036600319011261030b576104cd6105bb61030f565b336116e1565b3461030b57602036600319011261030b576001600160a01b036105e261030f565b165f52600960205260405f205463ffffffff811161060c5760405163ffffffff9091168152602090f35b6306dfcc6560e41b5f52602060045260245260445ffd5b3461030b57602036600319011261030b57602061041361064161030f565b6001600160a01b03165f9081526020819052604090205490565b3461030b57604036600319011261030b576104cd61067761030f565b602435906106868233836111f4565b6115b9565b3461030b57602036600319011261030b576001600160a01b036106ac61030f565b165f526007602052602060405f2054604051908152f35b3461030b575f36600319011261030b576107676106ff7f0000000000000000000000000000000000000000000000000000000000000000611b38565b6107287f0000000000000000000000000000000000000000000000000000000000000000611b98565b60206040516107378282610da2565b5f81528161077581830194601f198301368737604051978897600f60f81b895260e0858a015260e08901906101f9565b9087820360408901526101f9565b914660608701523060808701525f60a087015285830360c087015251918281520192915f5b8281106107a957505050500390f35b83518552869550938101939281019260010161079a565b3461030b57602036600319011261030b5760043565ffffffffffff6107e4436114dd565b1690818110156108a4576107f7906114dd565b600a54905f82916005841161084b575b6108139350600a6119b2565b8061082f575060205f5b6040516001600160d01b039091168152f35b61083a60209161150c565b600a5f52815f20015460301c61081d565b919261085681611854565b810390811161089f5761081393600a5f5265ffffffffffff8260205f2001541665ffffffffffff8516105f1461088d575091610807565b9291506108999061151a565b90610807565b610fba565b637669fc0f60e11b5f5260045260245260445ffd5b3461030b575f36600319011261030b5760206108d4436114dd565b65ffffffffffff60405191168152f35b3461030b575f36600319011261030b576040515f60045461090481610fce565b80845290600181169081156102e7575060011461092b576102858361027981850382610da2565b60045f9081527f8a35acfbc15ff81a39ae7d344fd709f28e8600b4aa8c65c6b64bfe7fe36bd19b939250905b80821061096f57509091508101602001610279610269565b919260018160209254838588010152019101909291610957565b3461030b57602036600319011261030b576001600160a01b036109aa61030f565b165f526009602052602060018060d01b036109c760405f20611762565b16604051908152f35b3461030b575f36600319011261030b576040515f6010546109f081610fce565b80845290600181169081156102e75750600114610a17576102858361027981850382610da2565b60105f9081527f1b6847dc741a1b0cd08d278845f9d819d87b734759afb55fe2de5cb82a9ae672939250905b808210610a5b57509091508101602001610279610269565b919260018160209254838588010152019101909291610a43565b3461030b57604036600319011261030b57610361610a9161030f565b60243590336112c2565b6064359060ff8216820361030b57565b6084359060ff8216820361030b57565b3461030b5760c036600319011261030b57610ad461030f565b60243590604435610ae3610a9b565b6084359060a43592804211610bb85791610b689391610b5a610b5f9460405160208101917fe48329057bfd03d55e49b547132e39cffd9c1820ad7b9d4c5307691425d15adf835260018060a01b038a1660408301528a6060830152608082015260808152610b5260a082610da2565b51902061178c565b611bcf565b90929192611c7a565b6001600160a01b0381165f908152600760205260409020805460018101909155809303610b99576104cd92506116e1565b90506301d4b62360e61b5f5260018060a01b031660045260245260445ffd5b632341d78760e11b5f5260045260245ffd5b3461030b5760e036600319011261030b57610be361030f565b610beb610325565b6044359060643592610bfb610aab565b60a43560c43590864211610cdb576001600160a01b0384165f908152600760205260409020805460018101909155610ca09390610c9b909860405160208101917f6e71edae12b1b97f4d1f60370fef10105fa2faae0126114a169c64845d6126c9835260018060a01b0389169b8c604084015260018060a01b038b1660608401528b608084015260a083015260c082015260c08152610b5260e082610da2565b6117b2565b936001600160a01b03851603610cba576104cd93506117c1565b6325c0072360e11b5f526001600160a01b038085166004521660245260445ffd5b8663313c898160e11b5f5260045260245ffd5b3461030b575f36600319011261030b57600d546040516001600160a01b039091168152602090f35b3461030b57604036600319011261030b576020610d64610d3461030f565b610d3c610325565b6001600160a01b039182165f9081526001855260408082209290931681526020919091522090565b54604051908152f35b634e487b7160e01b5f52604160045260245ffd5b6040810190811067ffffffffffffffff821117610d9d57604052565b610d6d565b90601f8019910116810190811067ffffffffffffffff821117610d9d57604052565b60405190610dd3604083610da2565b565b67ffffffffffffffff8111610d9d57601f01601f191660200190565b3461030b57602036600319011261030b5760043567ffffffffffffffff811161030b573660238201121561030b578060040135610e2d81610dd5565b90610e3b6040519283610da2565b808252366024828501011161030b576020815f9260246104cd960183860137830101526110d7565b3461030b57604036600319011261030b57610e7c61030f565b6024359063ffffffff8216820361030b5761028591610ecb91610e9d6111dc565b50610ea66111dc565b506001600160a01b03165f908152600960205260409020610ec56111dc565b50611cf6565b5060405190610ed982610d81565b5465ffffffffffff811680835260309190911c60209283019081526040805192835290516001600160d01b031692820192909252918291820190565b3461030b575f36600319011261030b576040515f600f54610f3581610fce565b80845290600181169081156102e75750600114610f5c576102858361027981850382610da2565b600f5f9081527f8d1108e10bcb7c27dddfc02ed9d693a074039d026cf4ea4240b40f7d581ac802939250905b808210610fa057509091508101602001610279610269565b919260018160209254838588010152019101909291610f88565b634e487b7160e01b5f52601160045260245ffd5b90600182811c92168015610ffc575b6020831014610fe857565b634e487b7160e01b5f52602260045260245ffd5b91607f1691610fdd565b5f929181549161101583610fce565b808352926001811690811561106a575060011461103157505050565b5f9081526020812093945091925b838310611050575060209250010190565b60018160209294939454838587010152019101919061103f565b915050602093945060ff929192191683830152151560051b010190565b601f8111611093575050565b600f5f5260205f20906020601f840160051c830193106110cd575b601f0160051c01905b8181106110c2575050565b5f81556001016110b7565b90915081906110ae565b600d549091906001600160a01b031633036111cd57815167ffffffffffffffff8111610d9d576111118161110c600f54610fce565b611087565b602092601f821160011461115157611141929382915f92611146575b50508160011b915f199060031b1c19161790565b600f55565b015190505f8061112d565b600f5f52601f198216937f8d1108e10bcb7c27dddfc02ed9d693a074039d026cf4ea4240b40f7d581ac802915f5b8681106111b5575083600195961061119d575b505050811b01600f55565b01515f1960f88460031b161c191690555f8080611192565b9192602060018192868501518155019401920161117f565b638b906c9760e01b5f5260045ffd5b604051906111e982610d81565b5f6020838281520152565b6001600160a01b039081165f81815260016020908152604080832094861683529390529190912091929091546001810161122f575b50505050565b8181106112a157821561128e576001600160a01b0384161561127b57611271925f526001602052039160405f209060018060a01b03165f5260205260405f2090565b555f808080611229565b634a1406b160e11b5f525f60045260245ffd5b63e602df0560e01b5f525f60045260245ffd5b83637dc7a0d960e11b5f5260018060a01b031660045260245260445260645ffd5b6001600160a01b0381169392919084156113ae576001600160a01b038216801561139b576001600160a01b0382165f90815260208190526040902054958487106113755784610dd39697036113268460018060a01b03165f525f60205260405f2090565b556001600160a01b0384165f9081526020819052604090208054860190556040518581527fddf252ad1be2c89b69c2b068fc378daa952ba7f163c4a11628f55a4df523b3ef90602090a3611e26565b63391434e360e21b5f526001600160a01b0383166004526024879052604485905260645ffd5b63ec442f0560e01b5f525f60045260245ffd5b634b637e8f60e11b5f525f60045260245ffd5b307f00000000000000000000000000000000000000000000000000000000000000006001600160a01b031614806114b4575b1561141c577f000000000000000000000000000000000000000000000000000000000000000090565b60405160208101907f8b73c3c69bb8fe3d512ecc4cf759cc79239f7b179b0ffacaa9a75d522b39400f82527f000000000000000000000000000000000000000000000000000000000000000060408201527f000000000000000000000000000000000000000000000000000000000000000060608201524660808201523060a082015260a081526114ae60c082610da2565b51902090565b507f000000000000000000000000000000000000000000000000000000000000000046146113f3565b65ffffffffffff81116114f55765ffffffffffff1690565b6306dfcc6560e41b5f52603060045260245260445ffd5b5f1981019190821161089f57565b906001820180921161089f57565b908154905f829160058411611566575b6115439350846119b2565b8061154e5750505f90565b6115579061150c565b905f5260205f20015460301c90565b919261157181611854565b810390811161089f5761154393855f5265ffffffffffff8260205f2001541665ffffffffffff8516105f146115a7575091611538565b9291506115b39061151a565b90611538565b6001600160a01b0381169081156113ae576001600160a01b0381165f908152602081905260409020548381106116bc579061160b84610dd3959493039160018060a01b03165f525f60205260405f2090565b5581600254036002555f817fddf252ad1be2c89b69c2b068fc378daa952ba7f163c4a11628f55a4df523b3ef60405180602081018782520390a380156116a4575b61165d61165883611d1f565b611df1565b50505f908152600860205260408120549080527f5eff886ea0ce6ca488a3d6e336d6c0f75f46d19b42c06ce5ee98e42c96d256c7546001600160a01b039081169116611a16565b6116b56116b083611d1f565b611dbc565b505061164c565b63391434e360e21b5f526001600160a01b03909116600452602452604482905260645ffd5b6001600160a01b038181165f81815260086020526040812080548685166001600160a01b031982168117909255610dd39694169461175c9390928691907f3134e8a2e6d97e929a7e54011ea5485d7d196dd5f0ba4d4ef95803e8e3fc257f9080a46001600160a01b03165f9081526020819052604090205490565b91611a16565b805490816117705750505f90565b815f1981011161089f575f525f199060205f2001015460301c90565b6042906117976113c1565b906040519161190160f01b8352600283015260228201522090565b9161022e9391610b5f93611bcf565b6001600160a01b031690811561128e576001600160a01b03811692831561127b57806118297f8c5be1e5ebec7d5bd14f71427d1e84f3dd0314c0f7b2291e5b200ac8c7c3b92593855f52600160205260405f209060018060a01b03165f5260205260405f2090565b55604051908152602090a3565b8115611840570490565b634e487b7160e01b5f52601260045260245ffd5b600181111561022e57806001600160801b821015611975575b61191b6119116119076118fd6118f36118e96118d86119229760048a600160401b6119279c1015611968575b64010000000081101561195b575b6201000081101561194e575b610100811015611941575b6010811015611934575b101561192c575b60030260011c90565b6118e2818b611836565b0160011c90565b6118e2818a611836565b6118e28189611836565b6118e28188611836565b6118e28187611836565b6118e28186611836565b8093611836565b821190565b900390565b60011b6118cf565b60041c9160021b916118c8565b60081c9160041b916118be565b60101c9160081b916118b3565b60201c9160101b916118a7565b60401c9160201b91611899565b505061192761192261191b6119116119076118fd6118f36118e96118d861199c8a60801c90565b9850600160401b975061186d9650505050505050565b91905b8382106119c25750505090565b9091928083169080841860011c820180921161089f57845f5265ffffffffffff8260205f2001541665ffffffffffff8416105f14611a045750925b91906119b5565b939250611a109061151a565b916119fd565b6001600160a01b03808316939291908116908185141580611b2f575b611a3e575b5050505050565b81611ac2575b505082611a53575b8080611a37565b6001600160a01b03165f9081526009602052604090207fdec2bacdd2f05b59de34da9b523dff8be42e5e38e818c82fdb0bae774387a72491611a9f91611a999091611d1f565b90611d88565b604080516001600160d01b039384168152919092166020820152a25f8080611a4c565b6001600160a01b03165f9081526009602052604090207fdec2bacdd2f05b59de34da9b523dff8be42e5e38e818c82fdb0bae774387a72490611b0d90611b0786611d1f565b90611d50565b604080516001600160d01b039384168152919092166020820152a25f80611a44565b50831515611a32565b60ff8114611b7e5760ff811690601f8211611b6f5760405191611b5c604084610da2565b6020808452838101919036833783525290565b632cd44ac360e21b5f5260045ffd5b5060405161022e81611b91816005611006565b0382610da2565b60ff8114611bbc5760ff811690601f8211611b6f5760405191611b5c604084610da2565b5060405161022e81611b91816006611006565b91907f7fffffffffffffffffffffffffffffff5d576e7357a4501ddfe92f46681b20a08411611c51579160209360809260ff5f9560405194855216868401526040830152606082015282805260015afa15611c46575f516001600160a01b03811615611c3c57905f905f90565b505f906001905f90565b6040513d5f823e3d90fd5b5050505f9160039190565b60041115611c6657565b634e487b7160e01b5f52602160045260245ffd5b611c8381611c5c565b80611c8c575050565b611c9581611c5c565b60018103611cac5763f645eedf60e01b5f5260045ffd5b611cb581611c5c565b60028103611cd0575063fce698f760e01b5f5260045260245ffd5b80611cdc600392611c5c565b14611ce45750565b6335e2f38360e21b5f5260045260245ffd5b8054821015611d0b575f5260205f2001905f90565b634e487b7160e01b5f52603260045260245ffd5b6001600160d01b038111611d39576001600160d01b031690565b6306dfcc6560e41b5f5260d060045260245260445ffd5b90611d5a436114dd565b90611d6483611762565b6001600160d01b03918216908216039190821161089f57611d8492611ef7565b9091565b90611d92436114dd565b90611d9c83611762565b6001600160d01b03918216908216019190821161089f57611d8492611ef7565b611dc5436114dd565b90611dd0600a611762565b6001600160d01b039182169082160190811161089f57611d8491600a611ef7565b611dfa436114dd565b90611e05600a611762565b6001600160d01b039182169082160390811161089f57611d8491600a611ef7565b610dd392916001600160a01b03909116908115611e89575b6001600160a01b0316908115611e76575b5f90815260086020526040808220549282529020546001600160a01b039081169116611a16565b611e8261165884611d1f565b5050611e4f565b611e956116b084611d1f565b5050611e3e565b8054600160401b811015610d9d57611eb991600182018155611cf6565b611ee457815160209092015160301b65ffffffffffff191665ffffffffffff92909216919091179055565b634e487b7160e01b5f525f60045260245ffd5b80549293928015611fa357611f0e611f199161150c565b825f5260205f200190565b8054603081901c9365ffffffffffff91821692918116808411611f9457879303611f605750611f5c92509065ffffffffffff82549181199060301b169116179055565b9190565b915050611f5c91611f80611f72610dc4565b65ffffffffffff9093168352565b6001600160d01b0386166020830152611e9c565b632520601d60e01b5f5260045ffd5b5090611fc891611fb4611f72610dc4565b6001600160d01b0385166020830152611e9c565b5f919056fea26469706673582212202df66d82ad0a2445e0783e6b6eeeedb159a145e47a834260e3667a4e096889cd64736f6c634300081c0033c65a7bb8d6351c1cf70c95a316cc6a92839c986682d98bc35f958f4883f9d2a7dec2bacdd2f05b59de34da9b523dff8be42e5e38e818c82fdb0bae774387a724a2646970667358221220fb102461093bb73b7a0fc144bfcd15faadf49e41e66a902c795741f6787d474b64736f6c634300081c0033","linkReferences":{}},"methodIdentifiers":{"basePair()":"5930919b","beeper()":"ac6db1a1","generateSalt(address,uint256,string,string,string,string,uint256,address)":"fb16adc4","predictToken(address,uint256,string,string,string,string,uint256,bytes32)":"87eeffa4"},"id":64}